{
  "contractName": "ApartmentContract",
  "abi": [
    {
      "inputs": [],
      "payable": false,
      "stateMutability": "nonpayable",
      "type": "constructor"
    },
    {
      "anonymous": false,
      "inputs": [
        {
          "indexed": false,
          "internalType": "uint256",
          "name": "id",
          "type": "uint256"
        },
        {
          "indexed": false,
          "internalType": "string",
          "name": "name",
          "type": "string"
        },
        {
          "indexed": false,
          "internalType": "enum ApartmentContract.Status",
          "name": "status",
          "type": "uint8"
        }
      ],
      "name": "ContractCancelled",
      "type": "event"
    },
    {
      "anonymous": false,
      "inputs": [
        {
          "indexed": false,
          "internalType": "uint256",
          "name": "id",
          "type": "uint256"
        },
        {
          "indexed": false,
          "internalType": "string",
          "name": "name",
          "type": "string"
        },
        {
          "indexed": false,
          "internalType": "uint256",
          "name": "totalSum",
          "type": "uint256"
        },
        {
          "indexed": false,
          "internalType": "uint256",
          "name": "paidSum",
          "type": "uint256"
        },
        {
          "indexed": false,
          "internalType": "address",
          "name": "seller",
          "type": "address"
        },
        {
          "indexed": false,
          "internalType": "enum ApartmentContract.Status",
          "name": "status",
          "type": "uint8"
        }
      ],
      "name": "ContractCreated",
      "type": "event"
    },
    {
      "anonymous": false,
      "inputs": [
        {
          "indexed": false,
          "internalType": "uint256",
          "name": "id",
          "type": "uint256"
        },
        {
          "indexed": false,
          "internalType": "string",
          "name": "name",
          "type": "string"
        },
        {
          "indexed": false,
          "internalType": "enum ApartmentContract.Status",
          "name": "status",
          "type": "uint8"
        }
      ],
      "name": "ContractFinished",
      "type": "event"
    },
    {
      "anonymous": false,
      "inputs": [
        {
          "indexed": false,
          "internalType": "uint256",
          "name": "id",
          "type": "uint256"
        },
        {
          "indexed": false,
          "internalType": "string",
          "name": "name",
          "type": "string"
        },
        {
          "indexed": false,
          "internalType": "uint256",
          "name": "totalSum",
          "type": "uint256"
        },
        {
          "indexed": false,
          "internalType": "uint256",
          "name": "paidSum",
          "type": "uint256"
        },
        {
          "indexed": false,
          "internalType": "address",
          "name": "seller",
          "type": "address"
        },
        {
          "indexed": false,
          "internalType": "enum ApartmentContract.Status",
          "name": "status",
          "type": "uint8"
        }
      ],
      "name": "ContractPayed",
      "type": "event"
    },
    {
      "constant": true,
      "inputs": [
        {
          "internalType": "uint256",
          "name": "",
          "type": "uint256"
        }
      ],
      "name": "apartments",
      "outputs": [
        {
          "internalType": "uint256",
          "name": "id",
          "type": "uint256"
        },
        {
          "internalType": "string",
          "name": "name",
          "type": "string"
        },
        {
          "internalType": "uint256",
          "name": "totalSum",
          "type": "uint256"
        },
        {
          "internalType": "uint256",
          "name": "paidSum",
          "type": "uint256"
        },
        {
          "internalType": "address payable",
          "name": "seller",
          "type": "address"
        },
        {
          "internalType": "enum ApartmentContract.Status",
          "name": "status",
          "type": "uint8"
        }
      ],
      "payable": false,
      "stateMutability": "view",
      "type": "function"
    },
    {
      "constant": true,
      "inputs": [],
      "name": "count",
      "outputs": [
        {
          "internalType": "uint256",
          "name": "",
          "type": "uint256"
        }
      ],
      "payable": false,
      "stateMutability": "view",
      "type": "function"
    },
    {
      "constant": false,
      "inputs": [
        {
          "internalType": "string",
          "name": "_name",
          "type": "string"
        },
        {
          "internalType": "uint256",
          "name": "_totalSum",
          "type": "uint256"
        },
        {
          "internalType": "address payable",
          "name": "_seller",
          "type": "address"
        }
      ],
      "name": "createContract",
      "outputs": [],
      "payable": false,
      "stateMutability": "nonpayable",
      "type": "function"
    },
    {
      "constant": false,
      "inputs": [
        {
          "internalType": "uint256",
          "name": "_id",
          "type": "uint256"
        }
      ],
      "name": "addPayment",
      "outputs": [],
      "payable": true,
      "stateMutability": "payable",
      "type": "function"
    },
    {
      "constant": true,
      "inputs": [
        {
          "internalType": "uint256",
          "name": "_id",
          "type": "uint256"
        }
      ],
      "name": "getPaidSum",
      "outputs": [
        {
          "internalType": "uint256",
          "name": "",
          "type": "uint256"
        }
      ],
      "payable": false,
      "stateMutability": "view",
      "type": "function"
    },
    {
      "constant": true,
      "inputs": [
        {
          "internalType": "uint256",
          "name": "_id",
          "type": "uint256"
        }
      ],
      "name": "getDifference",
      "outputs": [
        {
          "internalType": "uint256",
          "name": "",
          "type": "uint256"
        }
      ],
      "payable": false,
      "stateMutability": "view",
      "type": "function"
    },
    {
      "constant": true,
      "inputs": [
        {
          "internalType": "uint256",
          "name": "_id",
          "type": "uint256"
        }
      ],
      "name": "isActive",
      "outputs": [
        {
          "internalType": "bool",
          "name": "",
          "type": "bool"
        }
      ],
      "payable": false,
      "stateMutability": "view",
      "type": "function"
    },
    {
      "constant": true,
      "inputs": [
        {
          "internalType": "uint256",
          "name": "_id",
          "type": "uint256"
        }
      ],
      "name": "getStatus",
      "outputs": [
        {
          "internalType": "enum ApartmentContract.Status",
          "name": "",
          "type": "uint8"
        }
      ],
      "payable": false,
      "stateMutability": "view",
      "type": "function"
    },
    {
      "constant": false,
      "inputs": [
        {
          "internalType": "uint256",
          "name": "_id",
          "type": "uint256"
        }
      ],
      "name": "setCancelled",
      "outputs": [],
      "payable": false,
      "stateMutability": "nonpayable",
      "type": "function"
    }
  ],
  "bytecode": "0x6080604052600080553480156200001557600080fd5b50620000736040518060400160405280600d81526020017f5465737420636f6e747261637400000000000000000000000000000000000000815250600573090ec50a3f1184251e1041e5310f0f324fbd908e6200007960201b60201c565b6200035b565b60008081548092919060010191905055506040518060c001604052806000548152602001848152602001838152602001600081526020018273ffffffffffffffffffffffffffffffffffffffff168152602001600280811115620000d957fe5b815250600160008054815260200190815260200160002060008201518160000155602082015181600101908051906020019062000118929190620002ac565b50604082015181600201556060820151816003015560808201518160040160006101000a81548173ffffffffffffffffffffffffffffffffffffffff021916908373ffffffffffffffffffffffffffffffffffffffff16021790555060a08201518160040160146101000a81548160ff021916908360028111156200019957fe5b02179055509050507f5813195f39e4b96a0447ac9c230b4aa4e1d91c8ac74730c73a592e4b01ed27246000548484600085600260405180878152602001806020018681526020018581526020018473ffffffffffffffffffffffffffffffffffffffff1673ffffffffffffffffffffffffffffffffffffffff1681526020018360028111156200022557fe5b60ff168152602001828103825287818151815260200191508051906020019080838360005b83811015620002675780820151818401526020810190506200024a565b50505050905090810190601f168015620002955780820380516001836020036101000a031916815260200191505b5097505050505050505060405180910390a1505050565b828054600181600116156101000203166002900490600052602060002090601f016020900481019282601f10620002ef57805160ff191683800117855562000320565b8280016001018555821562000320579182015b828111156200031f57825182559160200191906001019062000302565b5b5090506200032f919062000333565b5090565b6200035891905b80821115620003545760008160009055506001016200033a565b5090565b90565b610f08806200036b6000396000f3fe6080604052600436106100865760003560e01c8063abb8be1711610059578063abb8be1714610258578063b7dcec9114610369578063b80e42a8146103b8578063c949cb8314610407578063e452351b1461043557610086565b806306661abd1461008b5780635babbc8d146100b65780635c622a0e146101a857806382afd23b14610205575b600080fd5b34801561009757600080fd5b506100a0610470565b6040518082815260200191505060405180910390f35b3480156100c257600080fd5b506101a6600480360360608110156100d957600080fd5b81019080803590602001906401000000008111156100f657600080fd5b82018360208201111561010857600080fd5b8035906020019184600183028401116401000000008311171561012a57600080fd5b91908080601f016020809104026020016040519081016040528093929190818152602001838380828437600081840152601f19601f82011690508083019250505050505050919291929080359060200190929190803573ffffffffffffffffffffffffffffffffffffffff169060200190929190505050610476565b005b3480156101b457600080fd5b506101e1600480360360208110156101cb57600080fd5b81019080803590602001909291905050506106a1565b604051808260028111156101f157fe5b60ff16815260200191505060405180910390f35b34801561021157600080fd5b5061023e6004803603602081101561022857600080fd5b81019080803590602001909291905050506106ce565b604051808215151515815260200191505060405180910390f35b34801561026457600080fd5b506102916004803603602081101561027b57600080fd5b8101908080359060200190929190505050610713565b60405180878152602001806020018681526020018581526020018473ffffffffffffffffffffffffffffffffffffffff1673ffffffffffffffffffffffffffffffffffffffff1681526020018360028111156102e957fe5b60ff168152602001828103825287818151815260200191508051906020019080838360005b8381101561032957808201518184015260208101905061030e565b50505050905090810190601f1680156103565780820380516001836020036101000a031916815260200191505b5097505050505050505060405180910390f35b34801561037557600080fd5b506103a26004803603602081101561038c57600080fd5b8101908080359060200190929190505050610814565b6040518082815260200191505060405180910390f35b3480156103c457600080fd5b506103f1600480360360208110156103db57600080fd5b8101908080359060200190929190505050610834565b6040518082815260200191505060405180910390f35b6104336004803603602081101561041d57600080fd5b810190808035906020019092919050505061086c565b005b34801561044157600080fd5b5061046e6004803603602081101561045857600080fd5b8101908080359060200190929190505050610b56565b005b60005481565b60008081548092919060010191905055506040518060c001604052806000548152602001848152602001838152602001600081526020018273ffffffffffffffffffffffffffffffffffffffff1681526020016002808111156104d557fe5b8152506001600080548152602001908152602001600020600082015181600001556020820151816001019080519060200190610512929190610e2e565b50604082015181600201556060820151816003015560808201518160040160006101000a81548173ffffffffffffffffffffffffffffffffffffffff021916908373ffffffffffffffffffffffffffffffffffffffff16021790555060a08201518160040160146101000a81548160ff0219169083600281111561059257fe5b02179055509050507f5813195f39e4b96a0447ac9c230b4aa4e1d91c8ac74730c73a592e4b01ed27246000548484600085600260405180878152602001806020018681526020018581526020018473ffffffffffffffffffffffffffffffffffffffff1673ffffffffffffffffffffffffffffffffffffffff16815260200183600281111561061d57fe5b60ff168152602001828103825287818151815260200191508051906020019080838360005b8381101561065d578082015181840152602081019050610642565b50505050905090810190601f16801561068a5780820380516001836020036101000a031916815260200191505b5097505050505050505060405180910390a1505050565b60006001600083815260200190815260200160002060040160149054906101000a900460ff169050919050565b60006002808111156106dc57fe5b6001600084815260200190815260200160002060040160149054906101000a900460ff16600281111561070b57fe5b149050919050565b6001602052806000526040600020600091509050806000015490806001018054600181600116156101000203166002900480601f0160208091040260200160405190810160405280929190818152602001828054600181600116156101000203166002900480156107c55780601f1061079a576101008083540402835291602001916107c5565b820191906000526020600020905b8154815290600101906020018083116107a857829003601f168201915b5050505050908060020154908060030154908060040160009054906101000a900473ffffffffffffffffffffffffffffffffffffffff16908060040160149054906101000a900460ff16905086565b600060016000838152602001908152602001600020600301549050919050565b600060016000838152602001908152602001600020600301546001600084815260200190815260200160002060020154039050919050565b60005481111561087b57600080fd5b60028081111561088757fe5b6001600083815260200190815260200160002060040160149054906101000a900460ff1660028111156108b657fe5b146108c057600080fd5b3460016000838152602001908152602001600020600301600082825401925050819055506001600082815260200190815260200160002060040160009054906101000a900473ffffffffffffffffffffffffffffffffffffffff1673ffffffffffffffffffffffffffffffffffffffff166108fc349081150290604051600060405180830381858888f19350505050158015610960573d6000803e3d6000fd5b50600160008281526020019081526020016000206002015460016000838152602001908152602001600020600301541061099e5761099d81610ce5565b5b7fc7fca15566aa04a355bba8f778d98503a096a99d9527eb844d07710f14fcbc608160016000848152602001908152602001600020600101600160008581526020019081526020016000206002015460016000868152602001908152602001600020600301546001600087815260200190815260200160002060040160009054906101000a900473ffffffffffffffffffffffffffffffffffffffff166001600088815260200190815260200160002060040160149054906101000a900460ff1660405180878152602001806020018681526020018581526020018473ffffffffffffffffffffffffffffffffffffffff1673ffffffffffffffffffffffffffffffffffffffff168152602001836002811115610ab757fe5b60ff168152602001828103825287818154600181600116156101000203166002900481526020019150805460018160011615610100020316600290048015610b405780601f10610b1557610100808354040283529160200191610b40565b820191906000526020600020905b815481529060010190602001808311610b2357829003601f168201915b505097505050505050505060405180910390a150565b600280811115610b6257fe5b6001600083815260200190815260200160002060040160149054906101000a900460ff166002811115610b9157fe5b14610b9b57600080fd5b60006001600083815260200190815260200160002060040160146101000a81548160ff02191690836002811115610bce57fe5b02179055507fc45a4f4d7c78115e580d1c11358ca095b15e62760b0f4f3ba456ed2041cf311481600160008481526020019081526020016000206001016001600085815260200190815260200160002060040160149054906101000a900460ff166040518084815260200180602001836002811115610c4957fe5b60ff168152602001828103825284818154600181600116156101000203166002900481526020019150805460018160011615610100020316600290048015610cd25780601f10610ca757610100808354040283529160200191610cd2565b820191906000526020600020905b815481529060010190602001808311610cb557829003601f168201915b505094505050505060405180910390a150565b600180600083815260200190815260200160002060040160146101000a81548160ff02191690836002811115610d1757fe5b02179055507ff177b8817973f3f21bcc95c787db66d9b38906f66daf266ede495233de0c761381600160008481526020019081526020016000206001016001600085815260200190815260200160002060040160149054906101000a900460ff166040518084815260200180602001836002811115610d9257fe5b60ff168152602001828103825284818154600181600116156101000203166002900481526020019150805460018160011615610100020316600290048015610e1b5780601f10610df057610100808354040283529160200191610e1b565b820191906000526020600020905b815481529060010190602001808311610dfe57829003601f168201915b505094505050505060405180910390a150565b828054600181600116156101000203166002900490600052602060002090601f016020900481019282601f10610e6f57805160ff1916838001178555610e9d565b82800160010185558215610e9d579182015b82811115610e9c578251825591602001919060010190610e81565b5b509050610eaa9190610eae565b5090565b610ed091905b80821115610ecc576000816000905550600101610eb4565b5090565b9056fea265627a7a72315820511b83d5378c094e83f34f8870e9a0e0af083250783fcf4a93ca3e954ea61e5164736f6c63430005100032",
  "source": "pragma solidity ^0.5.1;\n\ncontract ApartmentContract {\n    uint256 public count = 0;\n\n    enum Status {Cancelled, Finished, Active}\n\n    struct Apartment {\n        uint256 id;\n        string name;\n        uint256 totalSum;\n        uint256 paidSum;\n        address payable seller;\n        Status status;\n    }\n\n    mapping(uint256 => Apartment) public apartments;\n\n    event ContractCreated(\n        uint256 id,\n        string name,\n        uint256 totalSum,\n        uint256 paidSum,\n        address seller,\n        Status status\n    );\n\n    event ContractPayed(\n        uint256 id,\n        string name,\n        uint256 totalSum,\n        uint256 paidSum,\n        address seller,\n        Status status\n    );\n\n    event ContractFinished(uint256 id, string name, Status status);\n\n    event ContractCancelled(uint256 id, string name, Status status);\n\n    constructor() public {\n        createContract(\n            \"Test contract\",\n            5,\n            0x090ec50a3f1184251E1041E5310F0f324FBD908E\n        );\n    }\n\n    function createContract(\n        string memory _name,\n        uint256 _totalSum,\n        address payable _seller\n    ) public {\n        count++;\n        apartments[count] = Apartment(\n            count,\n            _name,\n            _totalSum,\n            0,\n            _seller,\n            Status.Active\n        );\n        emit ContractCreated(\n            count,\n            _name,\n            _totalSum,\n            0,\n            _seller,\n            Status.Active\n        );\n    }\n\n    function addPayment(uint256 _id) public payable {\n        require(_id <= count);\n        require(apartments[_id].status == Status.Active);\n        apartments[_id].paidSum += msg.value;\n        apartments[_id].seller.transfer(msg.value);\n        if (apartments[_id].paidSum >= apartments[_id].totalSum)\n            setFinished(_id);\n\n        emit ContractPayed(\n            _id,\n            apartments[_id].name,\n            apartments[_id].totalSum,\n            apartments[_id].paidSum,\n            apartments[_id].seller,\n            apartments[_id].status\n        );\n    }\n\n    function getPaidSum(uint256 _id) public view returns (uint256) {\n        return apartments[_id].paidSum;\n    }\n\n    function getDifference(uint256 _id) public view returns (uint256) {\n        return apartments[_id].totalSum - apartments[_id].paidSum;\n    }\n\n    function isActive(uint256 _id) public view returns (bool) {\n        return apartments[_id].status == Status.Active;\n    }\n\n    function getStatus(uint256 _id) public view returns (Status) {\n        return apartments[_id].status;\n    }\n\n    function setCancelled(uint256 _id) public {\n        require(apartments[_id].status == Status.Active);\n        apartments[_id].status = Status.Cancelled;\n        //return 90% of the sum to the buyer\n\n        emit ContractCancelled(\n            _id,\n            apartments[_id].name,\n            apartments[_id].status\n        );\n    }\n\n    function setFinished(uint256 _id) private {\n        apartments[_id].status = Status.Finished;\n\n        emit ContractFinished(\n            _id,\n            apartments[_id].name,\n            apartments[_id].status\n        );\n    }\n}\n",
  "sourcePath": "/Users/dimazagorodny/Documents/study/Blockchain-ApartmentContract/contracts/ApartmentContract.sol",
  "compiler": {
    "name": "solc",
    "version": "0.5.16+commit.9c3226ce.Emscripten.clang"
  },
  "schemaVersion": "3.3.3",
  "updatedAt": "2021-02-06T09:08:31.367Z",
  "networkType": "ethereum",
  "devdoc": {
    "methods": {}
  },
  "userdoc": {
    "methods": {}
  }
}