{
  "contractName": "ApartmentContract",
  "abi": [
    {
      "constant": true,
      "inputs": [],
      "name": "name",
      "outputs": [
        {
          "internalType": "string",
          "name": "",
          "type": "string"
        }
      ],
      "payable": false,
      "stateMutability": "view",
      "type": "function"
    },
    {
      "constant": true,
      "inputs": [],
      "name": "paidSum",
      "outputs": [
        {
          "internalType": "uint256",
          "name": "",
          "type": "uint256"
        }
      ],
      "payable": false,
      "stateMutability": "view",
      "type": "function"
    },
    {
      "constant": true,
      "inputs": [],
      "name": "status",
      "outputs": [
        {
          "internalType": "enum ApartmentContract.Status",
          "name": "",
          "type": "uint8"
        }
      ],
      "payable": false,
      "stateMutability": "view",
      "type": "function"
    },
    {
      "constant": true,
      "inputs": [],
      "name": "totalSum",
      "outputs": [
        {
          "internalType": "uint256",
          "name": "",
          "type": "uint256"
        }
      ],
      "payable": false,
      "stateMutability": "view",
      "type": "function"
    },
    {
      "constant": false,
      "inputs": [
        {
          "internalType": "string",
          "name": "_name",
          "type": "string"
        },
        {
          "internalType": "uint256",
          "name": "_totalSum",
          "type": "uint256"
        },
        {
          "internalType": "address payable",
          "name": "_seller",
          "type": "address"
        }
      ],
      "name": "createContract",
      "outputs": [],
      "payable": false,
      "stateMutability": "nonpayable",
      "type": "function"
    },
    {
      "constant": false,
      "inputs": [],
      "name": "addPayment",
      "outputs": [],
      "payable": true,
      "stateMutability": "payable",
      "type": "function"
    },
    {
      "constant": true,
      "inputs": [],
      "name": "getPaidSum",
      "outputs": [
        {
          "internalType": "uint256",
          "name": "",
          "type": "uint256"
        }
      ],
      "payable": false,
      "stateMutability": "view",
      "type": "function"
    },
    {
      "constant": true,
      "inputs": [],
      "name": "getDifference",
      "outputs": [
        {
          "internalType": "uint256",
          "name": "",
          "type": "uint256"
        }
      ],
      "payable": false,
      "stateMutability": "view",
      "type": "function"
    },
    {
      "constant": true,
      "inputs": [],
      "name": "isActive",
      "outputs": [
        {
          "internalType": "bool",
          "name": "",
          "type": "bool"
        }
      ],
      "payable": false,
      "stateMutability": "view",
      "type": "function"
    },
    {
      "constant": true,
      "inputs": [],
      "name": "getStatus",
      "outputs": [
        {
          "internalType": "enum ApartmentContract.Status",
          "name": "",
          "type": "uint8"
        }
      ],
      "payable": false,
      "stateMutability": "view",
      "type": "function"
    },
    {
      "constant": false,
      "inputs": [],
      "name": "setCancelled",
      "outputs": [],
      "payable": false,
      "stateMutability": "nonpayable",
      "type": "function"
    }
  ],
  "bytecode": "0x60806040526000600255670de0b6b3a764000060035534801561002157600080fd5b5061074f806100316000396000f3fe60806040526004361061009c5760003560e01c80633d5f408a116100645780633d5f408a146101ba5780634869f99d146101e55780634e69d560146102105780635babbc8d14610249578063dbc182861461033b578063f092e82b146103665761009c565b806306fdde03146100a1578063200d2ed21461013157806322d3e8f91461016a57806322f3e2d4146101745780633055d790146101a3575b600080fd5b3480156100ad57600080fd5b506100b6610391565b6040518080602001828103825283818151815260200191508051906020019080838360005b838110156100f65780820151818401526020810190506100db565b50505050905090810190601f1680156101235780820380516001836020036101000a031916815260200191505b509250505060405180910390f35b34801561013d57600080fd5b5061014661042f565b6040518082600281111561015657fe5b60ff16815260200191505060405180910390f35b610172610442565b005b34801561018057600080fd5b50610189610502565b604051808215151515815260200191505060405180910390f35b3480156101af57600080fd5b506101b8610531565b005b3480156101c657600080fd5b506101cf610588565b6040518082815260200191505060405180910390f35b3480156101f157600080fd5b506101fa610596565b6040518082815260200191505060405180910390f35b34801561021c57600080fd5b5061022561059c565b6040518082600281111561023557fe5b60ff16815260200191505060405180910390f35b34801561025557600080fd5b506103396004803603606081101561026c57600080fd5b810190808035906020019064010000000081111561028957600080fd5b82018360208201111561029b57600080fd5b803590602001918460018302840111640100000000831117156102bd57600080fd5b91908080601f016020809104026020016040519081016040528093929190818152602001838380828437600081840152601f19601f82011690508083019250505050505050919291929080359060200190929190803573ffffffffffffffffffffffffffffffffffffffff1690602001909291905050506105b3565b005b34801561034757600080fd5b5061035061063f565b6040518082815260200191505060405180910390f35b34801561037257600080fd5b5061037b610649565b6040518082815260200191505060405180910390f35b60008054600181600116156101000203166002900480601f0160208091040260200160405190810160405280929190818152602001828054600181600116156101000203166002900480156104275780601f106103fc57610100808354040283529160200191610427565b820191906000526020600020905b81548152906001019060200180831161040a57829003601f168201915b505050505081565b600560149054906101000a900460ff1681565b60028081111561044e57fe5b600560149054906101000a900460ff16600281111561046957fe5b1461047357600080fd5b34600260008282540192505081905550600460009054906101000a900473ffffffffffffffffffffffffffffffffffffffff1673ffffffffffffffffffffffffffffffffffffffff166108fc349081150290604051600060405180830381858888f193505050501580156104eb573d6000803e3d6000fd5b5060015460025410610500576104ff61064f565b5b565b600060028081111561051057fe5b600560149054906101000a900460ff16600281111561052b57fe5b14905090565b60028081111561053d57fe5b600560149054906101000a900460ff16600281111561055857fe5b1461056257600080fd5b6000600560146101000a81548160ff0219169083600281111561058157fe5b0217905550565b600060025460015403905090565b60015481565b6000600560149054906101000a900460ff16905090565b82600090805190602001906105c9929190610675565b5060035482026001819055506002600560146101000a81548160ff021916908360028111156105f457fe5b021790555080600460006101000a81548173ffffffffffffffffffffffffffffffffffffffff021916908373ffffffffffffffffffffffffffffffffffffffff160217905550505050565b6000600254905090565b60025481565b6001600560146101000a81548160ff0219169083600281111561066e57fe5b0217905550565b828054600181600116156101000203166002900490600052602060002090601f016020900481019282601f106106b657805160ff19168380011785556106e4565b828001600101855582156106e4579182015b828111156106e35782518255916020019190600101906106c8565b5b5090506106f191906106f5565b5090565b61071791905b808211156107135760008160009055506001016106fb565b5090565b9056fea265627a7a72315820c09f789ddd115bef42352599b2cd168034c2c8f28ba9c61c0d8ce6d6ce8677a964736f6c63430005100032",
  "source": "pragma solidity ^0.5.1;\n\ncontract ApartmentContract {\n    string public name;\n    uint256 public totalSum;\n    uint256 public paidSum = 0;\n    uint256 oneEther = 1000000000000000000;\n    address payable seller;\n    address payable buyer;\n    enum Status {Cancelled, Finished, Active}\n    Status public status;\n\n    function createContract(\n        string memory _name,\n        uint256 _totalSum,\n        address payable _seller\n    ) public {\n        name = _name;\n        totalSum = _totalSum * oneEther;\n        status = Status.Active;\n        seller = _seller;\n    }\n\n    function addPayment() public payable {\n        require(status == Status.Active);\n        paidSum += msg.value;\n        seller.transfer(msg.value);\n        if (paidSum >= totalSum) setFinished();\n    }\n\n    function getPaidSum() public view returns (uint256) {\n        return paidSum;\n    }\n\n    function getDifference() public view returns (uint256) {\n        return totalSum - paidSum;\n    }\n\n    function isActive() public view returns (bool) {\n        return status == Status.Active;\n    }\n\n    function getStatus() public view returns (Status) {\n        return status;\n    }\n\n    function setCancelled() public {\n        require(status == Status.Active);\n        status = Status.Cancelled;\n        //return 90% of the sum to the buyer\n    }\n\n    function setFinished() private {\n        status = Status.Finished;\n    }\n}\n",
  "sourcePath": "/Users/dimazagorodny/Documents/study/Blockchain-ApartmentContract/contracts/ApartmentContract.sol",
  "compiler": {
    "name": "solc",
    "version": "0.5.16+commit.9c3226ce.Emscripten.clang"
  },
  "schemaVersion": "3.3.3",
  "updatedAt": "2021-02-05T21:01:14.439Z",
  "devdoc": {
    "methods": {}
  },
  "userdoc": {
    "methods": {}
  }
}