{
  "contractName": "ApartmentContract",
  "abi": [
    {
      "inputs": [],
      "payable": false,
      "stateMutability": "nonpayable",
      "type": "constructor"
    },
    {
      "anonymous": false,
      "inputs": [
        {
          "indexed": false,
          "internalType": "uint256",
          "name": "id",
          "type": "uint256"
        },
        {
          "indexed": false,
          "internalType": "string",
          "name": "name",
          "type": "string"
        },
        {
          "indexed": false,
          "internalType": "enum ApartmentContract.Status",
          "name": "status",
          "type": "uint8"
        }
      ],
      "name": "ContractCancelled",
      "type": "event"
    },
    {
      "anonymous": false,
      "inputs": [
        {
          "indexed": false,
          "internalType": "uint256",
          "name": "id",
          "type": "uint256"
        },
        {
          "indexed": false,
          "internalType": "string",
          "name": "name",
          "type": "string"
        },
        {
          "indexed": false,
          "internalType": "uint256",
          "name": "totalSum",
          "type": "uint256"
        },
        {
          "indexed": false,
          "internalType": "uint256",
          "name": "paidSum",
          "type": "uint256"
        },
        {
          "indexed": false,
          "internalType": "address",
          "name": "seller",
          "type": "address"
        },
        {
          "indexed": false,
          "internalType": "address",
          "name": "buyer",
          "type": "address"
        },
        {
          "indexed": false,
          "internalType": "enum ApartmentContract.Status",
          "name": "status",
          "type": "uint8"
        }
      ],
      "name": "ContractCreated",
      "type": "event"
    },
    {
      "anonymous": false,
      "inputs": [
        {
          "indexed": false,
          "internalType": "uint256",
          "name": "id",
          "type": "uint256"
        },
        {
          "indexed": false,
          "internalType": "string",
          "name": "name",
          "type": "string"
        },
        {
          "indexed": false,
          "internalType": "enum ApartmentContract.Status",
          "name": "status",
          "type": "uint8"
        }
      ],
      "name": "ContractFinished",
      "type": "event"
    },
    {
      "anonymous": false,
      "inputs": [
        {
          "indexed": false,
          "internalType": "uint256",
          "name": "id",
          "type": "uint256"
        },
        {
          "indexed": false,
          "internalType": "string",
          "name": "name",
          "type": "string"
        },
        {
          "indexed": false,
          "internalType": "uint256",
          "name": "totalSum",
          "type": "uint256"
        },
        {
          "indexed": false,
          "internalType": "uint256",
          "name": "paidSum",
          "type": "uint256"
        },
        {
          "indexed": false,
          "internalType": "address",
          "name": "seller",
          "type": "address"
        },
        {
          "indexed": false,
          "internalType": "enum ApartmentContract.Status",
          "name": "status",
          "type": "uint8"
        }
      ],
      "name": "ContractPayed",
      "type": "event"
    },
    {
      "constant": true,
      "inputs": [
        {
          "internalType": "uint256",
          "name": "",
          "type": "uint256"
        }
      ],
      "name": "apartments",
      "outputs": [
        {
          "internalType": "uint256",
          "name": "id",
          "type": "uint256"
        },
        {
          "internalType": "string",
          "name": "name",
          "type": "string"
        },
        {
          "internalType": "uint256",
          "name": "totalSum",
          "type": "uint256"
        },
        {
          "internalType": "uint256",
          "name": "paidSum",
          "type": "uint256"
        },
        {
          "internalType": "address payable",
          "name": "seller",
          "type": "address"
        },
        {
          "internalType": "address payable",
          "name": "buyer",
          "type": "address"
        },
        {
          "internalType": "enum ApartmentContract.Status",
          "name": "status",
          "type": "uint8"
        }
      ],
      "payable": false,
      "stateMutability": "view",
      "type": "function"
    },
    {
      "constant": true,
      "inputs": [],
      "name": "count",
      "outputs": [
        {
          "internalType": "uint256",
          "name": "",
          "type": "uint256"
        }
      ],
      "payable": false,
      "stateMutability": "view",
      "type": "function"
    },
    {
      "constant": false,
      "inputs": [
        {
          "internalType": "string",
          "name": "_name",
          "type": "string"
        },
        {
          "internalType": "uint256",
          "name": "_totalSum",
          "type": "uint256"
        },
        {
          "internalType": "address payable",
          "name": "_seller",
          "type": "address"
        }
      ],
      "name": "createContract",
      "outputs": [],
      "payable": false,
      "stateMutability": "nonpayable",
      "type": "function"
    },
    {
      "constant": false,
      "inputs": [
        {
          "internalType": "uint256",
          "name": "_id",
          "type": "uint256"
        }
      ],
      "name": "addPayment",
      "outputs": [],
      "payable": true,
      "stateMutability": "payable",
      "type": "function"
    },
    {
      "constant": true,
      "inputs": [
        {
          "internalType": "uint256",
          "name": "_id",
          "type": "uint256"
        }
      ],
      "name": "getPaidSum",
      "outputs": [
        {
          "internalType": "uint256",
          "name": "",
          "type": "uint256"
        }
      ],
      "payable": false,
      "stateMutability": "view",
      "type": "function"
    },
    {
      "constant": true,
      "inputs": [
        {
          "internalType": "uint256",
          "name": "_id",
          "type": "uint256"
        }
      ],
      "name": "getDifference",
      "outputs": [
        {
          "internalType": "uint256",
          "name": "",
          "type": "uint256"
        }
      ],
      "payable": false,
      "stateMutability": "view",
      "type": "function"
    },
    {
      "constant": true,
      "inputs": [
        {
          "internalType": "uint256",
          "name": "_id",
          "type": "uint256"
        }
      ],
      "name": "isActive",
      "outputs": [
        {
          "internalType": "bool",
          "name": "",
          "type": "bool"
        }
      ],
      "payable": false,
      "stateMutability": "view",
      "type": "function"
    },
    {
      "constant": true,
      "inputs": [
        {
          "internalType": "uint256",
          "name": "_id",
          "type": "uint256"
        }
      ],
      "name": "getStatus",
      "outputs": [
        {
          "internalType": "enum ApartmentContract.Status",
          "name": "",
          "type": "uint8"
        }
      ],
      "payable": false,
      "stateMutability": "view",
      "type": "function"
    },
    {
      "constant": false,
      "inputs": [
        {
          "internalType": "uint256",
          "name": "_id",
          "type": "uint256"
        }
      ],
      "name": "setCancelled",
      "outputs": [],
      "payable": false,
      "stateMutability": "nonpayable",
      "type": "function"
    }
  ],
  "bytecode": "0x6080604052600080553480156200001557600080fd5b50620000736040518060400160405280600d81526020017f5465737420636f6e747261637400000000000000000000000000000000000000815250600573090ec50a3f1184251e1041e5310f0f324fbd908e6200007960201b60201c565b620003f2565b60008081548092919060010191905055506040518060e001604052806000548152602001848152602001838152602001600081526020018273ffffffffffffffffffffffffffffffffffffffff1681526020013373ffffffffffffffffffffffffffffffffffffffff168152602001600280811115620000f557fe5b81525060016000805481526020019081526020016000206000820151816000015560208201518160010190805190602001906200013492919062000343565b50604082015181600201556060820151816003015560808201518160040160006101000a81548173ffffffffffffffffffffffffffffffffffffffff021916908373ffffffffffffffffffffffffffffffffffffffff16021790555060a08201518160050160006101000a81548173ffffffffffffffffffffffffffffffffffffffff021916908373ffffffffffffffffffffffffffffffffffffffff16021790555060c08201518160050160146101000a81548160ff02191690836002811115620001fc57fe5b02179055509050507f90217a02375837b7781ccd4c73ce6e35b648ea27234eab0aa91a917cf450a7e6600054848460008533600260405180888152602001806020018781526020018681526020018573ffffffffffffffffffffffffffffffffffffffff1673ffffffffffffffffffffffffffffffffffffffff1681526020018473ffffffffffffffffffffffffffffffffffffffff1673ffffffffffffffffffffffffffffffffffffffff168152602001836002811115620002bb57fe5b60ff168152602001828103825288818151815260200191508051906020019080838360005b83811015620002fd578082015181840152602081019050620002e0565b50505050905090810190601f1680156200032b5780820380516001836020036101000a031916815260200191505b509850505050505050505060405180910390a1505050565b828054600181600116156101000203166002900490600052602060002090601f016020900481019282601f106200038657805160ff1916838001178555620003b7565b82800160010185558215620003b7579182015b82811115620003b657825182559160200191906001019062000399565b5b509050620003c69190620003ca565b5090565b620003ef91905b80821115620003eb576000816000905550600101620003d1565b5090565b90565b61106680620004026000396000f3fe6080604052600436106100865760003560e01c8063abb8be1711610059578063abb8be1714610258578063b7dcec911461039c578063b80e42a8146103eb578063c949cb831461043a578063e452351b1461046857610086565b806306661abd1461008b5780635babbc8d146100b65780635c622a0e146101a857806382afd23b14610205575b600080fd5b34801561009757600080fd5b506100a06104a3565b6040518082815260200191505060405180910390f35b3480156100c257600080fd5b506101a6600480360360608110156100d957600080fd5b81019080803590602001906401000000008111156100f657600080fd5b82018360208201111561010857600080fd5b8035906020019184600183028401116401000000008311171561012a57600080fd5b91908080601f016020809104026020016040519081016040528093929190818152602001838380828437600081840152601f19601f82011690508083019250505050505050919291929080359060200190929190803573ffffffffffffffffffffffffffffffffffffffff1690602001909291905050506104a9565b005b3480156101b457600080fd5b506101e1600480360360208110156101cb57600080fd5b810190808035906020019092919050505061076b565b604051808260028111156101f157fe5b60ff16815260200191505060405180910390f35b34801561021157600080fd5b5061023e6004803603602081101561022857600080fd5b8101908080359060200190929190505050610798565b604051808215151515815260200191505060405180910390f35b34801561026457600080fd5b506102916004803603602081101561027b57600080fd5b81019080803590602001909291905050506107dd565b60405180888152602001806020018781526020018681526020018573ffffffffffffffffffffffffffffffffffffffff1673ffffffffffffffffffffffffffffffffffffffff1681526020018473ffffffffffffffffffffffffffffffffffffffff1673ffffffffffffffffffffffffffffffffffffffff16815260200183600281111561031b57fe5b60ff168152602001828103825288818151815260200191508051906020019080838360005b8381101561035b578082015181840152602081019050610340565b50505050905090810190601f1680156103885780820380516001836020036101000a031916815260200191505b509850505050505050505060405180910390f35b3480156103a857600080fd5b506103d5600480360360208110156103bf57600080fd5b8101908080359060200190929190505050610904565b6040518082815260200191505060405180910390f35b3480156103f757600080fd5b506104246004803603602081101561040e57600080fd5b8101908080359060200190929190505050610924565b6040518082815260200191505060405180910390f35b6104666004803603602081101561045057600080fd5b810190808035906020019092919050505061095c565b005b34801561047457600080fd5b506104a16004803603602081101561048b57600080fd5b8101908080359060200190929190505050610c46565b005b60005481565b60008081548092919060010191905055506040518060e001604052806000548152602001848152602001838152602001600081526020018273ffffffffffffffffffffffffffffffffffffffff1681526020013373ffffffffffffffffffffffffffffffffffffffff16815260200160028081111561052457fe5b8152506001600080548152602001908152602001600020600082015181600001556020820151816001019080519060200190610561929190610f8c565b50604082015181600201556060820151816003015560808201518160040160006101000a81548173ffffffffffffffffffffffffffffffffffffffff021916908373ffffffffffffffffffffffffffffffffffffffff16021790555060a08201518160050160006101000a81548173ffffffffffffffffffffffffffffffffffffffff021916908373ffffffffffffffffffffffffffffffffffffffff16021790555060c08201518160050160146101000a81548160ff0219169083600281111561062857fe5b02179055509050507f90217a02375837b7781ccd4c73ce6e35b648ea27234eab0aa91a917cf450a7e6600054848460008533600260405180888152602001806020018781526020018681526020018573ffffffffffffffffffffffffffffffffffffffff1673ffffffffffffffffffffffffffffffffffffffff1681526020018473ffffffffffffffffffffffffffffffffffffffff1673ffffffffffffffffffffffffffffffffffffffff1681526020018360028111156106e657fe5b60ff168152602001828103825288818151815260200191508051906020019080838360005b8381101561072657808201518184015260208101905061070b565b50505050905090810190601f1680156107535780820380516001836020036101000a031916815260200191505b509850505050505050505060405180910390a1505050565b60006001600083815260200190815260200160002060050160149054906101000a900460ff169050919050565b60006002808111156107a657fe5b6001600084815260200190815260200160002060050160149054906101000a900460ff1660028111156107d557fe5b149050919050565b6001602052806000526040600020600091509050806000015490806001018054600181600116156101000203166002900480601f01602080910402602001604051908101604052809291908181526020018280546001816001161561010002031660029004801561088f5780601f106108645761010080835404028352916020019161088f565b820191906000526020600020905b81548152906001019060200180831161087257829003601f168201915b5050505050908060020154908060030154908060040160009054906101000a900473ffffffffffffffffffffffffffffffffffffffff16908060050160009054906101000a900473ffffffffffffffffffffffffffffffffffffffff16908060050160149054906101000a900460ff16905087565b600060016000838152602001908152602001600020600301549050919050565b600060016000838152602001908152602001600020600301546001600084815260200190815260200160002060020154039050919050565b60005481111561096b57600080fd5b60028081111561097757fe5b6001600083815260200190815260200160002060050160149054906101000a900460ff1660028111156109a657fe5b146109b057600080fd5b3460016000838152602001908152602001600020600301600082825401925050819055506001600082815260200190815260200160002060040160009054906101000a900473ffffffffffffffffffffffffffffffffffffffff1673ffffffffffffffffffffffffffffffffffffffff166108fc349081150290604051600060405180830381858888f19350505050158015610a50573d6000803e3d6000fd5b506001600082815260200190815260200160002060020154600160008381526020019081526020016000206003015410610a8e57610a8d81610e43565b5b7fc7fca15566aa04a355bba8f778d98503a096a99d9527eb844d07710f14fcbc608160016000848152602001908152602001600020600101600160008581526020019081526020016000206002015460016000868152602001908152602001600020600301546001600087815260200190815260200160002060040160009054906101000a900473ffffffffffffffffffffffffffffffffffffffff166001600088815260200190815260200160002060050160149054906101000a900460ff1660405180878152602001806020018681526020018581526020018473ffffffffffffffffffffffffffffffffffffffff1673ffffffffffffffffffffffffffffffffffffffff168152602001836002811115610ba757fe5b60ff168152602001828103825287818154600181600116156101000203166002900481526020019150805460018160011615610100020316600290048015610c305780601f10610c0557610100808354040283529160200191610c30565b820191906000526020600020905b815481529060010190602001808311610c1357829003601f168201915b505097505050505050505060405180910390a150565b600280811115610c5257fe5b6001600083815260200190815260200160002060050160149054906101000a900460ff166002811115610c8157fe5b14610c8b57600080fd5b3373ffffffffffffffffffffffffffffffffffffffff166001600083815260200190815260200160002060050160009054906101000a900473ffffffffffffffffffffffffffffffffffffffff1673ffffffffffffffffffffffffffffffffffffffff1614610cf957600080fd5b60006001600083815260200190815260200160002060050160146101000a81548160ff02191690836002811115610d2c57fe5b02179055507fc45a4f4d7c78115e580d1c11358ca095b15e62760b0f4f3ba456ed2041cf311481600160008481526020019081526020016000206001016001600085815260200190815260200160002060050160149054906101000a900460ff166040518084815260200180602001836002811115610da757fe5b60ff168152602001828103825284818154600181600116156101000203166002900481526020019150805460018160011615610100020316600290048015610e305780601f10610e0557610100808354040283529160200191610e30565b820191906000526020600020905b815481529060010190602001808311610e1357829003601f168201915b505094505050505060405180910390a150565b600180600083815260200190815260200160002060050160146101000a81548160ff02191690836002811115610e7557fe5b02179055507ff177b8817973f3f21bcc95c787db66d9b38906f66daf266ede495233de0c761381600160008481526020019081526020016000206001016001600085815260200190815260200160002060050160149054906101000a900460ff166040518084815260200180602001836002811115610ef057fe5b60ff168152602001828103825284818154600181600116156101000203166002900481526020019150805460018160011615610100020316600290048015610f795780601f10610f4e57610100808354040283529160200191610f79565b820191906000526020600020905b815481529060010190602001808311610f5c57829003601f168201915b505094505050505060405180910390a150565b828054600181600116156101000203166002900490600052602060002090601f016020900481019282601f10610fcd57805160ff1916838001178555610ffb565b82800160010185558215610ffb579182015b82811115610ffa578251825591602001919060010190610fdf565b5b509050611008919061100c565b5090565b61102e91905b8082111561102a576000816000905550600101611012565b5090565b9056fea265627a7a723158202bbaf09c56eeb00b02d5175f2f613dfb5e9f30146c43cf2acb8957421accc61c64736f6c63430005100032",
  "source": "pragma solidity ^0.5.1;\n\ncontract ApartmentContract {\n    uint256 public count = 0;\n\n    enum Status {Cancelled, Finished, Active}\n\n    struct Apartment {\n        uint256 id;\n        string name;\n        uint256 totalSum;\n        uint256 paidSum;\n        address payable seller;\n        address payable buyer;\n        Status status;\n    }\n\n    mapping(uint256 => Apartment) public apartments;\n\n    event ContractCreated(\n        uint256 id,\n        string name,\n        uint256 totalSum,\n        uint256 paidSum,\n        address seller,\n        address buyer,\n        Status status\n    );\n\n    event ContractPayed(\n        uint256 id,\n        string name,\n        uint256 totalSum,\n        uint256 paidSum,\n        address seller,\n        Status status\n    );\n\n    event ContractFinished(uint256 id, string name, Status status);\n\n    event ContractCancelled(uint256 id, string name, Status status);\n\n    constructor() public {\n        createContract(\n            \"Test contract\",\n            5,\n            0x090ec50a3f1184251E1041E5310F0f324FBD908E\n        );\n    }\n\n    function createContract(\n        string memory _name,\n        uint256 _totalSum,\n        address payable _seller\n    ) public {\n        count++;\n        apartments[count] = Apartment(\n            count,\n            _name,\n            _totalSum,\n            0,\n            _seller,\n            msg.sender,\n            Status.Active\n        );\n        emit ContractCreated(\n            count,\n            _name,\n            _totalSum,\n            0,\n            _seller,\n            msg.sender,\n            Status.Active\n        );\n    }\n\n    function addPayment(uint256 _id) public payable {\n        require(_id <= count);\n        require(apartments[_id].status == Status.Active);\n        apartments[_id].paidSum += msg.value;\n        apartments[_id].seller.transfer(msg.value);\n        if (apartments[_id].paidSum >= apartments[_id].totalSum)\n            setFinished(_id);\n\n        emit ContractPayed(\n            _id,\n            apartments[_id].name,\n            apartments[_id].totalSum,\n            apartments[_id].paidSum,\n            apartments[_id].seller,\n            apartments[_id].status\n        );\n    }\n\n    function getPaidSum(uint256 _id) public view returns (uint256) {\n        return apartments[_id].paidSum;\n    }\n\n    function getDifference(uint256 _id) public view returns (uint256) {\n        return apartments[_id].totalSum - apartments[_id].paidSum;\n    }\n\n    function isActive(uint256 _id) public view returns (bool) {\n        return apartments[_id].status == Status.Active;\n    }\n\n    function getStatus(uint256 _id) public view returns (Status) {\n        return apartments[_id].status;\n    }\n\n    function setCancelled(uint256 _id) public {\n        require(apartments[_id].status == Status.Active);\n        require(apartments[_id].buyer == msg.sender);\n        apartments[_id].status = Status.Cancelled;\n\n        emit ContractCancelled(\n            _id,\n            apartments[_id].name,\n            apartments[_id].status\n        );\n    }\n\n    function setFinished(uint256 _id) private {\n        apartments[_id].status = Status.Finished;\n\n        emit ContractFinished(\n            _id,\n            apartments[_id].name,\n            apartments[_id].status\n        );\n    }\n}\n",
  "sourcePath": "/Users/michalbarski/Desktop/Work/aptContract/contracts/ApartmentContract.sol",
  "compiler": {
    "name": "solc",
    "version": "0.5.16+commit.9c3226ce.Emscripten.clang"
  },
  "schemaVersion": "3.3.3",
  "updatedAt": "2021-02-07T09:17:20.168Z",
  "networkType": "ethereum",
  "devdoc": {
    "methods": {}
  },
  "userdoc": {
    "methods": {}
  }
}