{
  "contractName": "ApartmentContract",
  "abi": [
    {
      "inputs": [
        {
          "internalType": "uint256",
          "name": "_totalSum",
          "type": "uint256"
        },
        {
          "internalType": "address payable",
          "name": "_seller",
          "type": "address"
        }
      ],
      "payable": false,
      "stateMutability": "nonpayable",
      "type": "constructor"
    },
    {
      "constant": true,
      "inputs": [],
      "name": "paidSum",
      "outputs": [
        {
          "internalType": "uint256",
          "name": "",
          "type": "uint256"
        }
      ],
      "payable": false,
      "stateMutability": "view",
      "type": "function"
    },
    {
      "constant": true,
      "inputs": [],
      "name": "status",
      "outputs": [
        {
          "internalType": "enum ApartmentContract.Status",
          "name": "",
          "type": "uint8"
        }
      ],
      "payable": false,
      "stateMutability": "view",
      "type": "function"
    },
    {
      "constant": true,
      "inputs": [],
      "name": "totalSum",
      "outputs": [
        {
          "internalType": "uint256",
          "name": "",
          "type": "uint256"
        }
      ],
      "payable": false,
      "stateMutability": "view",
      "type": "function"
    },
    {
      "constant": false,
      "inputs": [],
      "name": "addPayment",
      "outputs": [],
      "payable": true,
      "stateMutability": "payable",
      "type": "function"
    },
    {
      "constant": true,
      "inputs": [],
      "name": "getPaidSum",
      "outputs": [
        {
          "internalType": "uint256",
          "name": "",
          "type": "uint256"
        }
      ],
      "payable": false,
      "stateMutability": "view",
      "type": "function"
    },
    {
      "constant": true,
      "inputs": [],
      "name": "getDifference",
      "outputs": [
        {
          "internalType": "uint256",
          "name": "",
          "type": "uint256"
        }
      ],
      "payable": false,
      "stateMutability": "view",
      "type": "function"
    },
    {
      "constant": true,
      "inputs": [],
      "name": "isActive",
      "outputs": [
        {
          "internalType": "bool",
          "name": "",
          "type": "bool"
        }
      ],
      "payable": false,
      "stateMutability": "view",
      "type": "function"
    },
    {
      "constant": true,
      "inputs": [],
      "name": "getStatus",
      "outputs": [
        {
          "internalType": "enum ApartmentContract.Status",
          "name": "",
          "type": "uint8"
        }
      ],
      "payable": false,
      "stateMutability": "view",
      "type": "function"
    },
    {
      "constant": false,
      "inputs": [],
      "name": "setCancelled",
      "outputs": [],
      "payable": false,
      "stateMutability": "nonpayable",
      "type": "function"
    }
  ],
  "bytecode": "0x60806040526000600155670de0b6b3a764000060025534801561002157600080fd5b506040516104c83803806104c88339818101604052604081101561004457600080fd5b81019080805190602001909291908051906020019092919050505060025482026000819055506002600460146101000a81548160ff0219169083600281111561008957fe5b021790555080600360006101000a81548173ffffffffffffffffffffffffffffffffffffffff021916908373ffffffffffffffffffffffffffffffffffffffff16021790555050506103e8806100e06000396000f3fe6080604052600436106100865760003560e01c80633d5f408a116100595780633d5f408a146101145780634869f99d1461013f5780634e69d5601461016a578063dbc18286146101a3578063f092e82b146101ce57610086565b8063200d2ed21461008b57806322d3e8f9146100c457806322f3e2d4146100ce5780633055d790146100fd575b600080fd5b34801561009757600080fd5b506100a06101f9565b604051808260028111156100b057fe5b60ff16815260200191505060405180910390f35b6100cc61020c565b005b3480156100da57600080fd5b506100e36102cc565b604051808215151515815260200191505060405180910390f35b34801561010957600080fd5b506101126102fb565b005b34801561012057600080fd5b50610129610352565b6040518082815260200191505060405180910390f35b34801561014b57600080fd5b50610154610360565b6040518082815260200191505060405180910390f35b34801561017657600080fd5b5061017f610366565b6040518082600281111561018f57fe5b60ff16815260200191505060405180910390f35b3480156101af57600080fd5b506101b861037d565b6040518082815260200191505060405180910390f35b3480156101da57600080fd5b506101e3610387565b6040518082815260200191505060405180910390f35b600460149054906101000a900460ff1681565b60028081111561021857fe5b600460149054906101000a900460ff16600281111561023357fe5b1461023d57600080fd5b34600160008282540192505081905550600360009054906101000a900473ffffffffffffffffffffffffffffffffffffffff1673ffffffffffffffffffffffffffffffffffffffff166108fc349081150290604051600060405180830381858888f193505050501580156102b5573d6000803e3d6000fd5b50600054600154106102ca576102c961038d565b5b565b60006002808111156102da57fe5b600460149054906101000a900460ff1660028111156102f557fe5b14905090565b60028081111561030757fe5b600460149054906101000a900460ff16600281111561032257fe5b1461032c57600080fd5b6000600460146101000a81548160ff0219169083600281111561034b57fe5b0217905550565b600060015460005403905090565b60005481565b6000600460149054906101000a900460ff16905090565b6000600154905090565b60015481565b6001600460146101000a81548160ff021916908360028111156103ac57fe5b021790555056fea265627a7a72315820e856cecea887cf2ce44aaa57809fe71d0469c9461c3f396a762d71e215b6f6b364736f6c63430005100032",
  "source": "pragma solidity ^0.5.1;\n\ncontract ApartmentContract {\n    \n    uint public totalSum;\n    uint public paidSum = 0;\n    uint oneEther = 1000000000000000000;\n    address payable seller;\n    address payable buyer;\n    enum Status { Cancelled, Finished, Active }\n    Status public status;\n    \n\n    constructor(uint _totalSum, address payable _seller) public{\n        totalSum = _totalSum * oneEther;\n        status = Status.Active;\n        seller = _seller;\n    }\n    \n    function addPayment() public payable{\n        require(status == Status.Active);\n        paidSum += msg.value;\n        seller.transfer(msg.value);\n        if(paidSum >= totalSum) setFinished();\n    }\n    function getPaidSum() public view returns(uint){\n        return paidSum;\n    }\n    function getDifference() public view returns(uint){\n        return totalSum - paidSum;\n    }\n    \n    function isActive() public view returns(bool) {\n        return status == Status.Active;\n    }\n    function getStatus() public view returns(Status) {\n        return status;\n    }\n   function setCancelled() public{\n       require(status == Status.Active);\n       status = Status.Cancelled;\n       //return 90% of the sum to the buyer\n   }\n   function setFinished() private{\n       status = Status.Finished;\n   }\n\n    \n}",
  "sourcePath": "/Users/michalbarski/Desktop/Work/aptContract/contracts/ApartmentContract.sol",
  "compiler": {
    "name": "solc",
    "version": "0.5.16+commit.9c3226ce.Emscripten.clang"
  },
  "schemaVersion": "3.3.3",
  "updatedAt": "2021-02-05T17:39:29.233Z",
  "devdoc": {
    "methods": {}
  },
  "userdoc": {
    "methods": {}
  }
}